:020000040800F2
:1000000050150020D10100081B2400082B1F0008F8
:10001000FD23000843090008C52700080000000070
:10002000000000000000000000000000332600086F
:1000300045090008000000001D24000835260008BE
:10004000EB010008EB010008EB010008EB010008E0
:10005000EB010008EB010008EB010008EB010008D0
:10006000EB010008EB010008EB010008EB010008C0
:10007000EB010008EB010008EB010008EB010008B0
:10008000EB010008EB010008EB010008EB010008A0
:10009000EB010008EB010008EB010008EB01000890
:1000A000EB010008EB010008EB010008EB01000880
:1000B000BD260008EB010008EB010008EB01000879
:1000C000EB010008EB010008EB010008EB01000860
:1000D000EB010008EB010008EB010008EB01000850
:1000E000EB010008EB010008EB01000800F002F84A
:1000F00000F05FF80AA090E8000C82448344AAF163
:100100000107DA4501D100F054F8AFF2090EBAE860
:100110000F0013F0010F18BFFB1A43F0010318473B
:10012000D0630000F06300000A444FF0000C10F8A8
:10013000013B13F0070408BF10F8014B1D1108BF65
:1001400010F8015B641E05D010F8016B641E01F805
:10015000016BF9D113F0080F1EBF10F8014BAD1C55
:100160000C1B09D16D1E58BF01F801CBFAD505E073
:1001700014F8016B01F8016B6D1EF9D59142D6D3CD
:10018000704700000023002400250026103A28BFF5
:1001900078C1FBD8520728BF30C148BF0B607047F9
:1001A000642900F07180002070471FB51FBD10B595
:1001B00010BD00F08DFB1146FFF7F7FF02F010FDB8
:1001C00000F0ABFB03B4FFF7F2FF03BC00F0B2FB9F
:1001D0000948804709480047FEE7FEE7FEE7FEE7DB
:1001E000FEE7FEE7FEE7FEE7FEE7FEE70448054917
:1001F000054A064B70470000B9260008ED000008CC
:10020000500F0020501500205011002050110020E8
:100210000FB41CB5074B06AA7B44694600900598AD
:1002200000F0E1FA0020694600F0F0FA1CBC5DF82D
:1002300014FB0000F105000070B5044685690068F4
:10024000C10601D5302600E02026C00707D070BDCA
:10025000D4E9012130469047206A401C20626D1E7F
:10026000F6D570BD70B5044685690078C00707D122
:1002700070BDD4E9012120209047206A401C2062F3
:100280006D1EF6D570BD00002DE9F0410646002434
:1002900010687529314616A510D0AFF300800028EC
:1002A00002DA404213A507E031688A0701D512A59A
:1002B00002E0490704D511A5012401E0AFF3008055
:1002C00000210A2206F1240709E0B0FBF2FCB0FB92
:1002D000F2F302FB1C00303078541846491C002809
:1002E000F3D123462A463046BDE8F04100F01DBA5E
:1002F000000000002D0000002B0000002000000086
:100300002DE9F05F894604464FF0000ADFF824B17A
:10031000FB44C0F820A02046E168884700287DD033
:10032000252806D0D4E901219047206A401C20628C
:10033000F1E700255F462046E16888472028064609
:1003400007DB312E05D2B81910F8200C08B105438F
:10035000F1E7A80701D525F00405C4F81CA0002783
:10036000C4F818A02A2E09D0304602F03CFA38B35F
:1003700004EB8708303EC8F8186019E059F8041BF0
:10038000204604EB87029161E1688847012F064609
:1003900018D1E069002820DA25F020051DE0D8F802
:1003A000180000EB800006EB40003038C8F8180059
:1003B0002046E1688847064602F015FA0028EED18B
:1003C000012F0AD02E2E08D12046E16888477F1CD5
:1003D0000646022F45F02005C4DBA069002803DA99
:1003E000404245F00105A061E80701D025F0100565
:1003F000A6B1A6F14100192802D8203645F40065BF
:100400004A463146204625604D46FFF7C9FE60B199
:10041000012807D0ED1D25F0070000E007E000F1FE
:10042000080978E705F1040975E730467AE7206A9C
:10043000BDE8F09F2461000010B5431C02E010F8F5
:10044000011B71B18107FAD14FF0013202C88C1A39
:100450008C4314EAC211F9D0C01A0A0603D0C01E98
:1004600010BDC01A10BD0A0401D0801E10BD0902C3
:10047000FCD0401E10BD10B5203AC0F00B80B1E892
:100480001850203AA0E81850B1E81850A0E81850C9
:10049000BFF4F5AF5FEA027C24BFB1E81850A0E8D2
:1004A000185044BF18C918C0BDE810405FEA827CEC
:1004B00024BF51F8043B40F8043B08BF7047D20703
:1004C00028BF31F8023B48BF11F8012B28BF20F8A4
:1004D000023B48BF00F8012B70474FF0000204298F
:1004E000C0F0128010F0030C00F01B80CCF1040C63
:1004F000BCF1020F18BF00F8012BA8BF20F8022B97
:10050000A1EB0C0100F00DB85FEAC17C24BF00F83C
:10051000012B00F8012B48BF00F8012B70474FF06A
:10052000000200B5134694469646203922BFA0E843
:100530000C50A0E80C50B1F12001BFF4F7AF09074F
:1005400028BFA0E80C5048BF0CC05DF804EB890040
:1005500028BF40F8042B08BF704748BF20F8022B83
:1005600011F0804F18BF00F8012B7047014900F0CF
:1005700053B90000C00E002010B503681C1404EB32
:1005800021449BB289B2194494FBF2F302FB13435A
:1005900094FBF2F401EB034393FBF2F102FB113104
:1005A00093FBF2F301E05B1E11440029FBDB0160C9
:1005B00003EB044010BDF0B504464FF0FF3585B0A5
:1005C0000068049060680290A0680390E068019061
:1005D00020690090666906F18040B0F1004F7CD838
:1005E0003C22002104A8FFF7C7FF3C22014602A8D5
:1005F000FFF7C2FF1822014603A8FFF7BDFF411E07
:1006000040F2B55201A8FFF7B7FF0C220746684633
:100610000021FFF7B1FF414B00EB8700304400267B
:100620007B4411E0511A01910099491C0229009163
:1006300002D00C2908D105E0810705D00199491C99
:10064000019101E0401C00960099019A595C914289
:10065000E8DD0099012906D11C2A04D1810702D0C6
:100660000221CDE90016A0F146018B293CD2DDE93B
:100670000061002202E09F5C521C3944B242FADB66
:10068000012E02DD820700D0491E40F2B55340F230
:100690006D16C21700EB927292105A4300F00303DA
:1006A00003FB062283070A4400D1521E039E02EB7D
:1006B0004203049F06EBC303029EC3EB031306EB46
:1006C0008303174E33441E149BB2C6EB0616C3EBCE
:1006D0000313B60007EB830300E005E006EB1346C7
:1006E00066F31F43360C02D0284605B0F0BD80C427
:1006F000029E40C4039E40C4019E761C44F80C6BCD
:10070000009E44E902600720521C92FBF0F600FBB9
:10071000162084E823001846E7E70000255E000065
:10072000A039CEFD7047704770472DE9F0470D4660
:1007300099469246044600F124080168880604D5CB
:10074000E06921F01001216000E00120A84201DDF4
:10075000471B00E00027A1697A1902EB0900081A7B
:10076000A0612078C00602D42046FFF765FD002670
:1007700008E0D4E901211AF806009047206A401CDD
:10078000761C20624E45F4DB2078C0060AD5204650
:10079000FFF752FD06E0D4E9012130209047206A9E
:1007A000401C2062381EA7F10107F4DC07E0D4E901
:1007B000012118F805009047206A401C2062281E7D
:1007C000A5F10105F3DC2046FFF74CFD207800067B
:1007D00002D50220BDE8F0870120FBE701694A1C31
:1007E00002610878704700B58FB0CDE90131002172
:1007F000059105497944CDE9031011466846FFF794
:100800007FFD0FB000BD0000E5FFFFFF0A6802F8A2
:10081000010B0A607047000070B50C4601680020AB
:100820004A1C3ED03C22B1FBF2F302FB1313B1FB96
:10083000F2F12360B1FBF2F302FB1313B1FBF2F10F
:1008400018226360B1FBF2F302FB1313B1FBF2F168
:1008500046F2E0320A440721A360B2FBF1F301FB48
:10086000132140F2B553B2FBF3F5A161B2FBF3F1F2
:1008700003FB15228900B2F5B77F08D39B10521EE7
:10088000B2FBF3F52944B2FBF3F503FB15220F4B42
:10089000E261616189077B440CD03B2A0AD3521C78
:1008A00008E02C212046FFF73AFE0120E0600AE034
:1008B000521A401C195C9142FAD9521CC4E9032017
:1008C0004FF0FF302062204670BD0000AF5B00009B
:1008D000754600F02BF8AE4605006946534620F0F9
:1008E0000700854618B020B5FFF780FCBDE8204022
:1008F0004FF000064FF000074FF000084FF0000BDC
:1009000021F00701AC46ACE8C009ACE8C009ACE88E
:10091000C009ACE8C0098D46704710B50446AFF376
:1009200000802046BDE81040FFF74CBC00487047EF
:10093000EC0E002001491820ABBEFEE726000200A5
:100940007047FEE7704772B6FEE7000070B50446D8
:1009500000F004F90546601C02D004480078044405
:1009600000F0FCF8401BA042FAD370BDF003002059
:100970002DE9F84FDFF8B8910024A9F1040B2346C4
:100980000F2709F1040AABF1040EC9E00125A540C7
:100990002A40AA427DD1674ED1F804C0ACEB0608CC
:1009A000B44532D014DCBCF1030F3AD009DCBCF101
:1009B000000F2AD0BCF1010F1CD0BCF1020F31D1C5
:1009C0001DE0BCF1110F17D0BCF1120F2AD119E0B4
:1009D000B8F5881F19D006DCB8F5803F15D0B8F5FA
:1009E000801F1FD111E0B8F5001F0ED0B8F5041F0D
:1009F00018D10AE0CB6815E0CB681B1D12E0CB686C
:100A000008330FE0CB680C330CE08B682BB1012B63
:100A10004FF0080303D0456104E0042302E00561C0
:100A200000E00023FF2A01D8064601E000F1040699
:100A30004FEA840501D9A5F12005D6F8008007FA10
:100A400005FC28EA0C0803FA05F548EA0508C6F88B
:100A500000804D68ED0062D5374DAE6946F0010665
:100A6000AE61AD6924F0030605F001050095334D34
:100A700006EB050CDCF80850A607360F07FA06F857
:100A800025EA0805DFF8B880404503D14FF000089B
:100A900017E044E0DFF8AC80404502D14FF0010898
:100AA0000FE0DFF8A480404502D14FF0020808E0D3
:100AB000DFF89880404502D14FF0030801E04FF085
:100AC000040808FA06F848EA0508CCF808804D68DA
:100AD000D9F80060ED024D4601D5164300E096437B
:100AE0002E604D68DAF80060AD02554601D5164318
:100AF00000E096432E604D68DBF80060AD035D4674
:100B000001D5164300E096432E604D68DEF8006084
:100B1000ED03754601D5164300E096432E60641C34
:100B20000D682A46E5407FF431AFBDE8F88F00003C
:100B300008040140000011100010024000000140B4
:100B400000080140000C0140001001400014014069
:100B50008068084000D0012070470000014880688C
:100B600070470000F003002070B5040025D094F811
:100B70003D00002520B984F83C50204600F04EF995
:100B8000242084F83D002068016821F00101016003
:100B90002068016841F4004101602068016821F487
:100BA0000041016000F06EFB4D4A6168914201D83E
:100BB0004C4900E04C49884201D2012070BD4B49AC
:100BC0002368B0FBF1F15E6826F03F060E435E60DD
:100BD0006368934206D94FF4967359434FF47A737E
:100BE000B1FBF3F12368491C1E6A26F03F0631432E
:100BF00019626168914210D84900401EB0FBF1F2C1
:100C0000521CC2F30B02042A01D2042022E0B0FBE2
:100C1000F1F0401CC0F30B001CE0A268F2B301EB42
:100C2000C10303EB0116431EB3FBF6F35B1C43F455
:100C300080431B0549D092B301EBC10202EB0111C5
:100C4000401EB0FBF1F0401CC0F30B0040F48040AC
:100C500040F400402168CA694CF6FF739A43104380
:100C6000C861D4E9071001432068026822F0C0027D
:100C700011430160D4E9030101432068826848F20E
:100C8000FF339A4311438160D4E905010843216889
:100C9000CA6822F0FF021043C86001E00EE016E0CF
:100CA0002068016841F0010101602564202084F87A
:100CB0003D00256384F83E50002070BD01EB4106E5
:100CC000431EB3FBF6F35B1CB3E70120C2E701EB65
:100CD0004101401EB0FBF1F0401CC0F30B00B7E730
:100CE000A086010080841E0000093D0040420F00E4
:100CF0002DE9F84F1F4690468A460446DDF82890B5
:100D0000FFF72CFF054694F83D0020287FD11923DA
:100D1000012240492046009501F09AF9002876D139
:100D200094F83C00012872D0012084F83C0020682F
:100D30000168C90703D1016841F001010160206821
:100D4000016821F400610160212084F83D00102039
:100D500084F83E0000262664C4F824806785608DF0
:100D600020852D48E0622B464A465146204601F038
:100D7000F5F890B9206841698069009036E02A460C
:100D80004946204601F00AFA50B1206C042804D1EB
:100D90002068016841F4007101600120BDE8F88F0E
:100DA000606A216800780861606A401C6062618D39
:100DB000491E6185218D491E89B2218522685369AA
:100DC000DB435B070BD451B100781061606A401CB3
:100DD0006062608D401E6085208D401E20852A4601
:100DE0004946204601F008F90028CED1208D002880
:100DF000C5D154F83D0B016841F400710160202019
:100E000004F81E09E67766770020C7E7FFE70220AF
:100E1000C4E70000020010000000FFFF10B586B01C
:100E200000210091019102910391006813498842C9
:100E300022D1134CA06940F00800A061A069694666
:100E400000F0080004904FF44070009012200190D0
:100E5000032003900B48FFF78BFD0B48416841F0DE
:100E6000E06141F002014160E06940F40010E0619E
:100E7000E06900F40010049006B010BD005400407A
:100E800000100240000C014000000140024881684F
:100E90000278114481607047F0030020074810B5C4
:100EA000016841F010010160032000F075F80F2087
:100EB00000F006F800F024F8002010BD00200240E9
:100EC00070B50D4D04464FF47A712878B1FBF0F0FF
:100ED0000A490968B1FBF0F000F087FD48B9102C11
:100EE00007D200222146501E00F036F800206C6028
:100EF00070BD012070BD0000F0030020FC03002045
:100F00000C4808B5816941F001018161816901F0F6
:100F100001010091C16941F08051C161C06900F0D7
:100F2000805000900448416821F0E06141F0007178
:100F3000416008BD0010024000000140002809DBAC
:100F400000F01F02012191404009800000F1E020E3
:100F5000C0F8001170470000F0B40E4B1B680C463F
:100F6000C3F30223C3F10705042D00D90425191D7D
:100F7000072901D2002300E0DB1E012606FA05F155
:100F8000491E214099409E40761E16403143F0BCD8
:100F900001F019BC0CED00E0064900F007020868FA
:100FA0004FF6FF03184040EA0220034A104308604E
:100FB000704700000CED00E00000FA050149012037
:100FC0000862704700000E4210B501460020234C15
:100FD000012922D0022939D010291DD16168226847
:100FE000D20119D51E48C1F38342C903805C0AD5DA
:100FF00061681B4AC1F34041921E515C194AB2FB21
:10100000F1F1484301E0184948436168490203D4BB
:1010100040000321B0FBF1F010BD226AC2F30121B0
:10102000012903D1920701D5C80310BD022905D1BA
:10103000626A920702D549F6404010BD0329FCD1EF
:1010400021688903F9D54FF2244010BD00F02AF938
:101050006168C1F38131491C4900DBE7001002409F
:10106000AA4B000800127A0000093D002DE9F84360
:1010700005460078354CC00754D0E0690026C00012
:1010800008D4E06940F08050E061E069012600F09A
:10109000805000902E480168C90512D4016880462E
:1010A00041F480710160FFF759FD074605E000BF7C
:1010B000FFF754FDC01B642823D8D8F80000C005F2
:1010C000F6D5206A10F4407021D0A98801F440714F
:1010D00081421CD0206A1F49012220F440700A601E
:1010E00000220A602062C00711D0FFF737FD0746D3
:1010F00041F2883808E000BFFFF730FDC11B4145D1
:1011000002D90320BDE8F883206A8007F4D5206A5D
:10111000696820F44070084320621EB1E06920F045
:101120008050E0612878800705D56068A96820F4C0
:101130004040084360602878C00605D56068E968CB
:1011400020F48000084360600020DBE700100240CC
:1011500000700040400442422DE9F0470F46050070
:1011600061D0434E306800F00700B84209D23068C1
:1011700020F0070038433060306800F00700B842C4
:1011800051D128683B4C810712D5400703D56068D0
:1011900040F4E06060602878000703D5606840F4A0
:1011A000605060606068A96820F0F00008436060EB
:1011B0002878C00728D06868012810D02168022844
:1011C00010D0890700292EDA616821F0030101435C
:1011D0006160FFF7C3FC804641F288390DE0216869
:1011E0008903EFE78901EDE7FFF7B8FCA0EB080101
:1011F000494502D90320BDE8F0876068696800F0BE
:101200000C00B0EB810FEFD1306800F00700B8425E
:101210000BD9306820F0070038433060306800F0A8
:101220000700B84201D00120E5E72878400705D53E
:101230006068E96820F4E06008436060287800078F
:1012400006D56068296920F4605040EAC1006060FA
:1012500000F038F86168084AC1F30311515CC840D6
:101260000649086006480068FFF72AFE0020C2E72A
:101270000020024000100240BA4B0008FC0300208E
:10128000F40300200448054900684968044AC1F392
:101290000221515CC8407047FC030020001002404E
:1012A000CA4B00080448054900684968044AC1F36C
:1012B000C221515CC8407047FC030020001002406E
:1012C000CA4B00080E4A51680E4801F00C03042B6B
:1012D00011D0082B0FD10C48C1F38343C903C05C64
:1012E0000AD55168084AC1F34041921E515C054A33
:1012F0005043B0FBF1F07047044948437047000089
:101300000010024000127A00984B000800093D00CE
:101310002DE9F84F040070D02078C04DC00749D0A7
:101320006868C0F38100012807D06868C0F38100B5
:10133000022809D16868C00306D52868800339D51A
:1013400060680028E7D035E06068B0F5803F0BD0DA
:1013500010B1B0F5A02F11D0286820F4803028609B
:10136000286820F4802002E0286840F4803028605B
:10137000606890B1FFF7F2FB06460AE0286840F487
:1013800080202860F0E700BFFFF7E8FB801B64289F
:1013900073D828688003F7D50CE0FFF7DFFB06461B
:1013A00005E000BFFFF7DAFB801B6428F0D828684F
:1013B0008003F7D420789A4E80074FF001094FF050
:1013C000000839D5686810F00C0F07D06868C0F3C2
:1013D0008100022809D16868C00306D42868800704
:1013E00014D52069012808D110E02069B0B1C6F8F1
:1013F0000090FFF7B3FB074605E00AE1FFF7AEFBFD
:10140000C01B0228C4D828688007F7D528686169FE
:1014100020F0F80040EAC10028600DE0C6F8008026
:10142000FFF79CFB074604E0FFF798FBC01B022870
:1014300023D828688007F7D4207800072CD579486E
:10144000A169D9B1C0F80090FFF788FB074604E016
:10145000FFF784FBC01B02280FD8686A8007F7D506
:1014600071484FF4FA510068B0FBF1F0009000BFF2
:101470000098411E0091FAD20EE080E0C0F8008092
:10148000FFF76CFB074604E0FFF768FBC01B022870
:1014900075D8686A8007F7D42078400760D5E86976
:1014A0000027C00008D4E86940F08050E861E8698E
:1014B000012700F0805000905C480168C90513D4F2
:1014C0000168834641F480710160FFF747FB824663
:1014D00006E000BFFFF742FBA0EB0A0064284ED8ED
:1014E000DBF80000C005F5D5E06801280AD008B196
:1014F000052813D0286A20F001002862286A20F00D
:10150000040002E0286A40F001002862E06841F22D
:10151000883B98B1FFF722FB82460BE0286A40F037
:1015200004002862EEE700BFFFF718FBA0EB0A01FA
:1015300059455AD8286A8007F6D50CE0FFF70EFB0C
:10154000824605E0FFF70AFBA0EB0A0159454CD89B
:10155000286A8007F6D41FB1E86920F08050E8615E
:10156000E06988B36968C1F38101022944D0022887
:10157000C6F8608004D0FFF7F1FA044638E034E0A2
:10158000FFF7ECFA074604E0FFF7E8FAC01B022871
:101590002BD828688001F7D4206AB0F5803F05D1A8
:1015A0006868A16820F4003008436860D4E9080145
:1015B0000843696821F4741108436860C6F86090B4
:1015C000FFF7CCFA044606E025E000BFFFF7C6FAB5
:1015D000001B022809D828688001F7D51BE000BF4E
:1015E000FFF7BCFA001B022802D90320BDE8F88FE0
:1015F00028688001F4D40EE00128F7D06868226AD8
:1016000000F48031914204D1616A00F47010884284
:1016100001D00120EAE70020E8E7000000100240C6
:101620000000424280044242FC030020007000405F
:10163000024850F8210080B270470000006C004062
:10164000024800EB810091B201607047006C0040DD
:10165000F8B505004FF0000016460C46009006D085
:101660002CB100226946284600F019F808B1012083
:10167000F8BD287B2070E87BE070697B6170A97BF6
:10168000A17056B100F0D4FEE070607800F0D0FE9A
:101690006070A07800F0CCFEA0700020F8BD2DE9AD
:1016A000F04791460C465FEA00084AD084B3D8F868
:1016B00000004068400744D4404600F057FF4FF414
:1016C00061620546B0FBF2F1B0FBF2F302FB13508E
:1016D0003C23B0FBF3F0B5FBF2F6607002FB165052
:1016E000B0FBF3F203FB1200A070182931D31820CD
:1016F000B1FBF0F7B1FBF0F200FB12102070404696
:1017000000F02DFF411C04D0A84202D9461B02E084
:1017100017E04FF0FF36A7EB071000EB4000C0EBDF
:10172000001005EBC0152946404600F06EFF40B999
:10173000701C01D0711900E03146404600F051FFA5
:1017400010B10120BDE8F0873946404600F07BFE2D
:1017500000E02170B9F1000F0BD0207800F068FE96
:101760002070607800F064FE6070A07800F060FE89
:10177000A0700020E6E7000070B5040003D0607C94
:10178000002610B105E0012070BD2674204600F04F
:101790003DF802206074204600F00AF9042550BB91
:1017A000204600F0A7FE30BB2068416821F0070109
:1017B0004160A06820B11448016821F00101016076
:1017C0001148001F0168A26821F460711143016093
:1017D0006068411C04D10120FFF7F6FB58B1401EA0
:1017E0002268C0F303419160216880B2C86020463E
:1017F00000F09AFE08B16574C5E7E67301206073D6
:10180000A0736074002070BD306C004008B50068A3
:10181000084988420DD1FFF7D1FB0748C16941F063
:101820000061C161C069054900F0006000900120BD
:10183000086008BD00280040001002403C044242FD
:101840002DE9F0410D4604003BD0C5B3207C0128B2
:101850003AD04FF0010884F8108002206074E878D4
:1018600072B300F0DCFDE073687800F0D8FD6073BF
:10187000A87800F0D4FDA073C2B2617BE07B00F0D9
:1018800085FE20732870204600F070FE4FF46161E1
:10189000B0FBF1F1002518292DD91822B1FBF2F186
:1018A000A1EB011101EB4101C1EB011100EBC116EC
:1018B0003146204600F0A9FE0427C8B90BE000E03D
:1018C00004E00120BDE8F0810220FBE7E0736878C6
:1018D0006073A878CFE7204600F041FE411C0AD093
:1018E000B04208D206490144204600F07AFE10B109
:1018F00067742574E5E784F8118025740020E1E71A
:10190000805101002DE9F0410D46040024D01DB3A3
:10191000207C012823D04FF0010884F81080022099
:1019200060742878EAB100F07AFD4FF4616100FB41
:1019300001F6687800F073FDC0EB001006EB80063E
:10194000A87800F06CFD35182946204600F05DFEB1
:101950000026042710BB0FE00120BDE8F081022023
:10196000FBE74FF4616148436978C1EB011100EB7B
:101970008100A9784518E7E72068416821F0050152
:101980004160204600F0EBFD411C0AD0A84208D27D
:1019900006490144204600F024FE10B16774267405
:1019A000DAE784F8118026740020D6E78051010020
:1019B00070B504000AD02068416821F00801416038
:1019C000FFF7CCF805464FF47A7608E0012070BDA9
:1019D000FFF7C4F8401BB04201D9032070BD206856
:1019E00040680007F4D5002070BD10B5401EB0F16E
:1019F000807F01D3012010BD4FF0E02460610F21F2
:101A0000601700F0E0FE0020A061072020610020A8
:101A100010BD70477047000070B590F83C20012A57
:101A200026D0012480F83C40022280F83D20036843
:101A30005A689D6822F070060A6832435A600D4B5E
:101A400002689A4208D0B2F1804F05D00A4B9A4200
:101A500002D00A4B9A4204D1496825F08003194309
:101A6000916080F83D40002180F83C10084670BD30
:101A7000022070BD002C014000040040000800401E
:101A800010B5040003D094F83D0010B107E0012028
:101A900010BD002084F83C00204600F01FF8022012
:101AA00084F83D00211D206800F00EFE012084F81E
:101AB000460084F83E0084F83F0084F8400084F833
:101AC000410084F8420084F8430084F8440084F81C
:101AD000450084F83D00002010BD000008B50068F6
:101AE000B0F1804F12D10A48C16941F00101C161D2
:101AF000C069002200F00100009011461C20FFF791
:101B00002BFABDE808401C20FFF718BA08BD0000FA
:101B10000010024090F83D10012901D001207047CB
:101B2000022180F83D100168CA6842F00102CA60D3
:101B300000680B49884208D0B0F1804F05D00949B0
:101B4000884202D00849884204D1816801F0070127
:101B5000062903D0016841F00101016000207047AF
:101B6000002C0140000400400008004070B504460D
:101B700090F83C000025012817D0012684F83C602D
:101B8000022084F83D002068826822F0770222F467
:101B90007F4282600868502838D00DDC20284FD062
:101BA00005DC90B3102811D14AE0022070BD302826
:101BB00046D040280AD13BE060282FD070280DD0B5
:101BC000B0F5805F03D0B0F5005F12D0012584F836
:101BD0003D60002084F83C00284670BDCB68D1E908
:101BE0000121206800F0B9FD2068816841F077018B
:101BF00009E0CB68D1E90121206800F0AEFD206842
:101C0000816841F480418160E1E719E0CA68496870
:101C1000206800F0B4FD5021206806E0CA684968D9
:101C2000206800F0BDFD6021206800F0A0FDCEE737
:101C3000CA684968206800F0A2FD40212068F4E7E6
:101C4000226801461046F0E72DE9F0410D460400F8
:101C500003D094F83D0018B108E00120BDE8F08100
:101C6000002084F83C00204600F040F8022084F870
:101C70003D002068816844F2070291438160211D84
:101C8000206800F021FD226890689169166A2B682F
:101C9000AF69034340F20330814341EA0721A8685A
:101CA000EF6908434FF6FC418843E96840EA0720A2
:101CB000014328692F6A000140EA07300843696838
:101CC0006D6926F0220646EA0515294393602268CD
:101CD000906154F8460B0162012004F81F09E07579
:101CE0002076E0762077A0750020B7E700B585B0B4
:101CF0000021009101910291039100680D498842F1
:101D000016D10D48C16941F00201C161C16901F0FC
:101D100002010491816941F0040181618069694691
:101D200000F004000490C02000900448FEF720FE5C
:101D300005B000BD00040040001002400008014052
:101D400070B590F83E60044690F83F5090F84230ED
:101D500090F84320022021B104290ED0012E1BD17E
:101D600014E0012E18D1012B16D184F83E0084F81E
:101D7000420001220021206820E0012D0CD1012A1F
:101D80000AD184F83F0084F8430014E0012D03D108
:101D9000012B01D1012A01D0012070BD84F83E0041
:101DA00084F83F0084F8420084F8430001220021B7
:101DB000206800F0C5FC01220421206800F0C0FC6E
:101DC0002068016841F001010160002070BD70478A
:101DD0002DE9F04104460068C66805694FF0000728
:101DE000A90713D5B10711D5F91E0161012020778C
:101DF000206880698007204602D0FFF7E8FF04E0F2
:101E000000F07EF8204600F07CF82777680716D5AA
:101E1000700714D521686FF0040008610220207754
:101E20002068806910F4407F204602D0FFF7CFFF82
:101E300004E000F065F8204600F063F827772807F3
:101E400015D5300713D521686FF00800086104200C
:101E500020772068C0698007204602D0FFF7B7FFCF
:101E600004E000F04DF8204600F04BF82777E80634
:101E700016D5F00614D521686FF01000086108200F
:101E800020772068C06910F4407F204602D0FFF719
:101E90009EFF04E000F034F8204600F032F8277787
:101EA000E80708D0F00706D021686FF0010008614C
:101EB000204600F027F8280608D5300606D5216808
:101EC0006FF0800008612046FFF7A3FD680608D583
:101ED000700606D521686FF040000861204600F0CA
:101EE00023F8A8060AD5B00608D521686FF02000AF
:101EF00008612046BDE8F041FFF78CBDBDE8F081E8
:101F000070477047064910B5884208D105490888CE
:101F1000401C088000F0A4FC02491239088210BD60
:101F2000300A0020E20200207047FEE701684A699B
:101F3000D24352050FD46FF480624A61002140F809
:101F4000301F202242738173026942F00402026151
:101F5000017301207047002070470000F8B5044667
:101F6000C06A1E460D461746082807D0012805D02E
:101F700010F5803F02D0206B122804D12068016840
:101F800041F480710160134600224FF00111204698
:101F9000009600F05DF840B120680068C00502D5E9
:101FA0004FF4007020640320F8BD2069B0F5804F25
:101FB0000ED00620216800EAD51040F0F00008613C
:101FC00033463A460B49204600F08AF878B902E0D9
:101FD00005F0FE0000E0E8B22168086105493346DB
:101FE0003A46891F204600F07BF80028DCD001200B
:101FF000F8BD00000800010070B516460D46044605
:102000001EE02046FFF792FF08B1012070BD681C5A
:1020100016D0FEF7A3FD801BA84200D885B9206822
:102020004069C04340070BD5002044F8300F202101
:102030006173A073216941F0200121612073E4E7FD
:1020400020684069C0434007DBD4002070BD000019
:102050002DE9F047984617460D460446C1F307465A
:10206000DDF820902AE000BFB8F1FF3F26D0FEF750
:1020700075FDA0EB0901414502D8B8F1000F1DD153
:102080002068012E16D0806925EA00000004000CAB
:1020900012D00020B84211D1002044F8300F202186
:1020A0006173A073216941F0200121612073012037
:1020B000BDE8F0874069E7E70120EBE72068012EE3
:1020C0000AD0806925EA00000004000C06D0002038
:1020D000B842C9D00020EBE74069F3E70120F7E7F9
:1020E0002DE9F047984616460D4604464FF0000984
:1020F0004FF0200AC1F3074723E020684069C0433E
:10210000400515D42068016841F400710160216820
:102110006FF480604861C4F8309084F83DA084F882
:102120003E90216C41F00401216484F83C9021E050
:10213000701C06D0FEF712FDA0EB0800B04203D8D9
:1021400016B1012F1FD021E02068012F15D0806922
:1021500025EA00000004000C18D000BF44F8309FAE
:1021600084F80DA084F80E90216941F020012161CE
:1021700084F80C900120BDE8F087406925EA000052
:102180000004000CEAD12068406901E02068806901
:1021900025EA00000004000CAFD1ECE770B516464C
:1021A0000D4604461EE02046FFF7C0FE08B10120A0
:1021B00070BD681C16D0FEF7D1FC801BA84200D869
:1021C00085B920684069C04300060BD5002044F85B
:1021D000300F20216173A073216941F0200121613A
:1021E0002073E4E720684069C0430006DBD4002088
:1021F00070BD000000B585B0002001900390154827
:10220000816941F010018161816901F0100104913F
:10221000816941F020018161816901F0200104910F
:10222000816941F004018161816901F00401049137
:10223000816941F0080181618069694600F0080008
:10224000049018200090012002900348FEF790FBB4
:1022500005B000BD00100240000801400D4810B557
:102260000B4901600C49416000214FF480428160BC
:10227000C0E9031241618161C1610162FEF774FC32
:10228000002803D0BDE81040FEF75DBB10BD000084
:1022900000540040C8090020801A06007CB50024C4
:1022A000204801941E4900940160611E41604FF472
:1022B00080718160FFF760FA08B1FEF744FB0121ED
:1022C0001848FFF7B5F946F26662904227D001211F
:1022D0001448FFF7B5F913258DF8045051208DF8F7
:1022E00005008DF80640012201A90E48FFF70AFB00
:1022F00008B1FEF728FB06208DF8000012208DF8AB
:1023000001008DF8025025208DF803000122694656
:102310000448FFF795FA002801D0FEF714FB7CBDB6
:10232000002800401C0A002010B586B00024174881
:10233000009401940294039404944FF08041059416
:10234000016041F61F41C0E9011440F2CF71C0E9BC
:10235000031480218161FFF793FB08B1FEF7F3FAC4
:102360004FF48050009069460848FFF7FFFB08B122
:10237000FEF7E9FA049404A904480594FFF74CFB1E
:10238000002801D0FEF7DFFA06B010BD300A0020A9
:1023900010B58CB024216846FEF7C1F80024164819
:1023A000099414490A94C0E900144FF6FF71C0E97A
:1023B0000241046184610320CDE900040120CDE9DC
:1023C00002040F210491CDE90540CDE9074169469A
:1023D0000948FFF739FC08B1FEF7B5FA099409A9D5
:1023E00005480A94FFF718FB002801D0FEF7ABFA66
:1023F0000CB010BD00040040780A0020FEE738B59C
:10240000044600F04BFE00906846FEF7AFF8014628
:102410002C222046FEF72FF838BDFEE77047010951
:1024200001EB810100F00F0000EB4100C0B27047EA
:10243000002102E00A38C0B2491C0A28FAD2090772
:1024400040EA116070472DE9F04104460025C07B49
:10245000627BA37B42E0012A16D0032A14D0052A0E
:1024600012D0072A10D0082A0ED00A2A0CD00C2A23
:102470000AD0042A10D0062A0ED0092A0CD00B2A22
:102480000AD0022A0DD028E01F2B0CD30C2A05D12C
:1024900001221346401C20E01E2B04D30123521CB2
:1024A0001BE01C2B02D203F1010316E011D183B211
:1024B0009E0710D16426B3FBF6F706FB173636B934
:1024C0004FF4C876B3FBF6F706FB17331BB91D2391
:1024D00003E01D2B01D1032201236D1C8D42BAD3D1
:1024E000D1B2E0736173DAB2A27300F04FF82073D7
:1024F000BDE8F08170B50446FEF730FB05464FF4A9
:102500007A7606E0FEF72AFB401BB04201D9032091
:1025100070BD206840688006F4D52068416841F0AD
:1025200010014160002070BD70B50446006841682C
:1025300021F010014160FEF711FB05464FF47A7659
:1025400007E000BFFEF70AFB401BB04201D90320A1
:1025500070BD206840688006F4D5002070BD016819
:10256000086A496A89B241EA004070470068816997
:102570008AB2C1698BB2816989B28A4203D0C069CB
:1025800061F31F40704743EA02407047F0B564248E
:10259000C1EBC1030927A500072603EB011303299B
:1025A000B3FBF7F100F5FA60114401440AD2401E72
:1025B000B0FBF4F201EB9001B0FBF5F0891A08448E
:1025C000001D08E0B0FBF4F201EB9001B0FBF5F068
:1025D000891A0844801CB0FBF6F106FB1100C0B25A
:1025E000F0BD70B50D4606460024FFF783FF48B9DD
:1025F0003168280C08623168A8B248623046FFF79B
:1026000093FF00B10124204670BD70B50D4606460B
:102610000024FFF76FFF48B93168280C88613168E2
:10262000A8B2C8613046FFF77FFF00B10124204601
:1026300070BD7047FEF72ABC70B594B0282168467B
:10264000FDF76DFF14210AA8FDF769FF00250F951E
:102650000920012410950090119512954FF48030B7
:1026600004940694CDE901050226CDE907604FF4F4
:10267000E01009906846FEF74BFE08B172B6FEE71F
:102680000F20CDE90A064FF48060CDE90C500221FD
:102690000AA80E95FEF760FD08B172B6FEE74FF48A
:1026A0000070CDE90F400FA8FEF7E0FC002801D034
:1026B00072B6FEE714B070BD704700000148FFF726
:1026C00087BB0000300A0020F0B50268194B1A4C95
:1026D0001A4D4FF08047984205D0B84203D0A0422F
:1026E00001D0A84203D122F070064A6832439842D2
:1026F00005D0B84203D0A04201D0A84203D122F4B1
:102700004074CA6822434C6922F08002224302606E
:102710008A68C2620A688262984201D109690163CB
:10272000012141610169C90703D0016921F001015B
:102730000161F0BD002C0140000400400008004091
:1027400010B501F01F030121046A99408C43046213
:10275000016A9A401143016210BD10B5846842EAD3
:10276000032224F47F440A432243826010BD82681E
:1027700022F070020A4342F007018160704710B5F1
:10278000036A046A24F001040462846924F0F004FA
:1027900044EA021423F00A020A438461026210BD73
:1027A00010B5036A046A24F010040462846923F0FB
:1027B000A00324F4704444EA023243EA0111826126
:1027C000016210BDFEE70907090E002804DB00F1D5
:1027D000E02080F80014704700F00F0000F1E020C6
:1027E00080F8141D704730380A2801D20120704744
:1027F000002070472DE9F0410D4604461746096850
:10280000006801F0E7FF0BD0296820680D460646F6
:1028100002F0DCF80D4920F00040884202DA256021
:10282000BDE8F081384602F025F8094901F010FFB3
:1028300007463146284602F0C9F8394601F008FF3C
:10284000314601F091FE2060EAE70000CDCC4C3D1E
:10285000000020413C210148FFF772BA780A0020AD
:1028600003480168486A002200B24A6270470000CB
:10287000780A002010B5144C08212046FEF768F9AC
:1028800030B110212046FEF763F978B1002010BD69
:102890001420FEF75BF808212046FEF759F90028BE
:1028A000F9D01420FEF752F8012010BD1420FEF7D5
:1028B0004DF810212046FEF74BF90028F9D01420DE
:1028C000FEF744F8022010BD000801402DE9FF5F2B
:1028D000944D90460E46B5F90630B5F90410924A6B
:1028E0004FF0000902EB40148B4211D0052933D080
:1028F000606880B9A5F80C90A5F80E900120606082
:1029000071682160A060E3693146404622699847BA
:10291000A888052820D0B5F9100000281CD00BDAB3
:10292000B5F90C00002815DD401EA881B5F90E0090
:1029300000280FDD401E0CE02169B5F90C00491E8E
:10294000814207DD401CA881B5F90E00032801DA99
:10295000401CE881A5F810900027AA461EE000BFA1
:10296000BAF90C10BAF90E00081A381A0B2101EB4B
:10297000001001F07FFF08EB4715291D68606B48C8
:10298000286005F114001E22FFF734FF294605F1E7
:1029900010001E22FFF72EFF7F1C3FB22069B842B5
:1029A000DEDC604FB7F90E00000101F063FF604DFF
:1029B0006860B7F90C0000EB400056F82000FDF706
:1029C0003BFD00EB40000A2101EB400001F06AFFF3
:1029D000A8601E22291D05F11400FFF70BFF05F169
:1029E00008011E2201F11000FFF704FF2069000119
:1029F000403801F03FFF05464E48D8F8041001F07A
:102A0000E5FF294601F024FE062102F086F8484938
:102A10001E222031C8600C3101F11000FFF7EAFEE0
:102A20004549464800F01FFE002531E005EB450B07
:102A300006EB8B000390826841A16846FDF7E8FB36
:102A400008EB4517786901F0F9FE1FFA80FA38693A
:102A500001F0F4FE81B256F82B305246374800F0B0
:102A6000A5FD03988068002810DB786901F0E6FE78
:102A70001FFA80FA3348396901F0A8FF01F0DEFE41
:102A800081B26B4652462D4800F090FD6D1CADB2F0
:102A90002069A842CADC264D2035E86901F0CEFE47
:102AA0001FFA80FAA86901F0C9FE1FFA80F8686968
:102AB00001F0C4FE87B2286901F0C0FECDE900A98B
:102AC00081B2CB4643463A461C4800F0FBFC02214B
:102AD0001A4800F0C0FD203DE86901F0AFFE1FFA82
:102AE00080F9A86901F0AAFE1FFA80F8686901F070
:102AF000A5FE87B2286901F0A1FECDE9009B81B255
:102B000043463A460D4800F0DDFC0648B0F90C009B
:102B100000EB400106EB810149682160E060BDE8FF
:102B2000FF9F0000D0020020080900200000E040C4
:102B3000E806002000003041D24B0008C804002005
:102B4000256400000000DC422DE9F04790460E4667
:102B50008246002422E000BF04EB440756F8270019
:102B6000FDF76AFCA0EB8000400001F083FE0AEB59
:102B7000441528600B2000EB041001F07BFE814619
:102B8000686056F82700FDF757FCA0EB8000400076
:102B900001F070FEC5E90409641C24B24445DBDB86
:102BA0000D494FF080420020C1E900204FF08343DF
:102BB000C1E90203C1E90420C1E9060320314FF055
:102BC0008143064A8B60C1E90020C1E90302C1E9E3
:102BD0000503C861BDE8F087E80600200000F84260
:102BE000FEF75CF9FFF728FDFFF704FBFFF736FB64
:102BF000FFF79AFBFFF7CCFBFFF750FB01F06CF8F7
:102C0000FFF728FE00F0BAFA2748FEF783FF274CAB
:102C1000274D00BFFFF72EFE6080A0B1B4F904106D
:102C2000002305EB41120529536000D0E180012803
:102C300001D11188A180022805D1B4F9040005EB67
:102C400040100089A0801B4800F0C8FAB4F90400C5
:102C5000062812D2DFE800F003060909090900F08E
:102C60002DF90AE000F028F807E0052809D005EB67
:102C700040118A694969FFF729FE0E4800F0E2FC1D
:102C8000C8E7B4F9060005EB40118A694969FFF706
:102C90001DFEB4F9060005EB4011CB688A6949694D
:102CA00001F06CFBE9E70000300A0020D0020020B0
:102CB00008090020C80400202DE9FC5F604EDFF801
:102CC0008491B6F90600B6F90410884209D0D9F803
:102CD0002410484629B901214162C9F8281000F0A2
:102CE000BFF8B6F9100000280DD000BFB6F90A00F1
:102CF00003DA002805DD401E02E0052801DA401C49
:102D0000708100203082DFF8408100254FF0310AC9
:102D1000B6F90A70E81B00EB80010AEBC10001F074
:102D2000A9FD08EB4514BD42206002D04748606011
:102D300003E008EB471146484860214604F11000C3
:102D40001422FFF757FD211D04F114001422FFF790
:102D500051FD6D1C2DB2062DDADBB6F90A4047464F
:102D600008EB44100168006901F030FE364D20F098
:102D70000040203DB0F1824F03DD4FF08540686098
:102D800002E0344868606861DFF8B48004EB440115
:102D900008F1300858F82100FDF74EFBA0EB800049
:102DA000802101EB4000400801F07CFD2860286193
:102DB00025481422291D0C38FFF71CFD26492748F9
:102DC00000F051FC00F09AF900F0BAF90024BA467C
:102DD000A8F1180B0AEB4417786901F02FFD86B2B1
:102DE000386901F02BFD81B25BF824201E20CDE96B
:102DF000000203463246194800F0E6FB641C062C2C
:102E0000E8DB686901F01AFD86B2286901F016FD59
:102E10000B4C81B24546B4F90A00324600EB400043
:102E200058F820300D4800F0C1FBB4F90A0000EB5F
:102E3000400005EB80004168C9F82010BDE8FC9F08
:102E4000D002002008090020280600200000B04120
:102E50000000404100006842D24B0008C804002036
:102E60002DE9F0470024104F104EA0464FF0800986
:102E700007EB441504EB8401C5E9008609EBC100AA
:102E800001F0F8FCC5E90406641C24B2062CEFDB53
:102E90000548084A20380649C0E900120161064980
:102EA0004161BDE8F0870000280600200000B04125
:102EB0000000444200006842000096422DE9F84FAD
:102EC000DFF878914FF0010B4FF00008D9F80400BB
:102ED00028B9C9E9008BC9F8088000F0BFF8584E3E
:102EE000584DDFF864A130894FF0000468B91DE047
:102EF0005CB105EB44174FF0FF3157F8180D01F0A6
:102F00000CFE396901F0E2FC03D205EB4411C1F873
:102F100008A005EB441000F1080146221830FFF725
:102F200069FC641C24B2042CE2DB18E0474F06E085
:102F30002CB105EB441050F8080CB84203DA05EB4D
:102F40004411C1F8088005EB441000F10801462245
:102F50001830FFF74FFC641C24B2042CE8DBA86F88
:102F60005746B84202D1A6F8088001E0318941B93C
:102F700010F0FF4F05D1A6F804B0A6F808B0C9F8C4
:102F8000048030483249C03800F06DFB2D4831A331
:102F900026222121C03800F009FB2A480221C0382E
:102FA00000F059FB30894FF00004A94608B300BF78
:102FB00009EB4415E86901F041FC1FFA80F8A869A3
:102FC00001F03CFC87B2686901F038FC86B22869E0
:102FD00001F034FC81B21B483B463246C038CDF884
:102FE000008000F004F9641CA4B2042CE0D3BDE816
:102FF000F88FBA4609EB4415E86901F01FFCAE6989
:103000001FFA80F8304601F019FC87B2686901F0B8
:1030100015FC85B23146504601F0D8FC01F00EFC9B
:1030200081B208483B462A46C038CDF8008000F0FF
:10303000DEF8641CA4B2042CDCD3D8E70809002015
:10304000D0020020880500200000044300008442D4
:103050002B55000852454354205549002DE9F047AF
:103060000025DFF834902F464FF040464FF083485C
:1030700009EB45142801266001F0FCFBC4E90107B7
:10308000C4E90386C4F81C80C4E905076D1C2DB291
:10309000042DEDDBBDE8F0878805002000B58DB07C
:1030A0002C2101A8FDF73BFA00200C90024600906D
:1030B00069461148FEF7CCFA00220CA90E48FEF72B
:1030C000EEFA9DF8320001909DF8310002909DF8D3
:1030D000300003909DF8020004909DF80100401E0E
:1030E00005909DF803006430069001A8FDF763FA8F
:1030F0000DB000F5E14000BD1C0A002010B50C4CDD
:103100002088052807D962880AA10C48FDF780F8B5
:103110000020208060806088084B401C60800A226C
:10312000BDE810405B2103F1400000F03FBA000011
:10313000E20200206670733A2564000088040020D3
:1031400010B50A48FFF75BF9084809A1D0E9013238
:10315000B438083AFDF75CF8044B0A22B43BBDE8EA
:103160001040002103F1200000F020BA5C0500208F
:10317000253032643A2530326400000000211348C3
:103180000A4600BF00EB4113491C5A60DA60062969
:10319000F8DB022140F8501F0C490922C039816038
:1031A0000B49416002620B49C1600B4A8262084AC6
:1031B00018324262C16203220264044A803A826485
:1031C000034A84324264C164704700000809002049
:1031D00048030020492B00082807002001680A7CCA
:1031E00090F83810406B5143C900FDF776B92DE9CE
:1031F000F8438146089C1E46101980B20090881939
:1032000083B215468846484600F004FA00280ED0DE
:103210000027002C0BD033462A46414648460097EB
:1032200000F0A4F86D1C641EADB2A4B2F1E7BDE8D5
:10323000F8832DE9F8431C4680461019401C80B2E3
:1032400000900819401C83B21546101B82B20E462E
:10325000081B81B2089F404600F0DCF9002806D028
:1032600023462A4631464046009700F0FBFABDE867
:10327000F8832DE9F84F83460A9E9A46901980B24A
:1032800001EB0A04009015460F46A3B2584600F021
:10329000C1F900282FD04FF0000953462A4639467D
:1032A0005846CDF8009000F061F8022E23D3B61EE8
:1032B000360405F10105360CADB214D04FF001080B
:1032C00033462A4639465846CDF8008000F04EF87D
:1032D000641EA1B233462A465846CDF8008000F05D
:1032E00045F8A81985B253462A4639465846CDF8BE
:1032F000009000F03BF8BDE8F88F2DE9F04104465E
:1033000090F870001F4615460E4630B1012809D0CE
:1033100002280CD0032815D10FE0E16D2046884724
:10332000284408E0E16D20468847301A09E0E16D45
:1033300020468847281A85B204E0E16D2046884778
:10334000304486B22846A4F86460A4F86600394682
:103350000025204600F062FC010003D0204600F06A
:103360008DFB85B22846BDE8F08100003FB581B0F5
:10337000044690F88C00089900283AD0BDF8100057
:10338000002836D0012811D9022902D0032907D0FC
:103390000CE0BDF80820101A401CADF8080005E04C
:1033A000BDF80C20101A401CADF80C0011F00105FE
:1033B00021D0B4F84810BDF80800814219D8B4F8FB
:1033C0004A10814215D9B4F84E30B4F84C2004A903
:1033D0000DF10C0000F028FA00280AD00095206BAF
:1033E000BDF81030BDF80C208568BDF808102046E7
:1033F000A84705B030BDB4F84C10BDF80C008142B0
:10340000F7D8B4F84E108142F3D9B4F84A30B4F882
:10341000482004A902A8DDE72DE9FF4F81B090F80C
:103420009270DDF838801D460E4681468FB100202F
:1034300082460398039A401C80B20090701983B2B0
:10344000484600F0E7F8002839D001244FF0000B7F
:1034500031E00120ECE700BF98F800002040002395
:103460000CE05B1C761C61009BB2B6B211F0FF044D
:1034700002D1012408F101086D1EADB255B198F8D2
:10348000001001EA040110B10029EAD103E000298B
:10349000E7D003E010B189F8927004E099F8910048
:1034A00048B989F892A0F01A81B2CDF800B0484628
:1034B000039AFFF75BFF002DCED189F8927005B01B
:1034C000BDE8F08F2DE9FF4F83B01F46DDE910A462
:1034D00002EB0A06B0B2CD19009090468946ABB215
:1034E000039800F097F800285CD009EB04001FFA5D
:1034F00080FB08EB040081B2281B401E85B2301B04
:10350000401E80B2CDE9010102200A460090234608
:1035100059460398FFF78DFE01200090DDE9022057
:1035200023462946FFF785FE04200090234659468E
:10353000019A0398FFF77DFE082000902346294654
:10354000019A0398FFF775FE0BF101011FFA81FB49
:103550000299381B491C001B80B289B202910328D2
:1035600011D3801E86B2601C85B23346424659464E
:1035700000950398FFF73BFE334600955946019AA4
:103580000398FFF734FEAAEB0400001B80B2032867
:1035900008D3801E80B20090DDE902203B464946F8
:1035A000FFF725FE07B0BDE8F08F000030B4024CF5
:1035B000446030BC00F000BA953F000838B50124E3
:1035C0000094FFF7D3FE38BD2DE9F84F8246DDE9C0
:1035D0000A57D81DC0F3CC08501980B21C46009081
:1035E000081983B216468946504600F013F80028A1
:1035F0000ED00BE023463246494650460097FFF76F
:103600000BFF761C6D1E4744B6B2ADB2002DF1D152
:10361000BDE8F88F70B50D461E460446B0F84E1052
:10362000B0F84C00049B00F06FFB002809D0B4F800
:103630004A10B4F8480033462A46BDE8704000F00E
:1036400063BB70BD10B5044600F0EDFB2046BDE83D
:10365000104000F05CBC80F89210032902D30121D5
:1036600080F89210704710B50446806D884209D0EA
:1036700004F17400A16500F0A1FB2046BDE81040F4
:1036800000F056B810BD00000149C1657047000048
:103690002F3A00080021A0F85010A0F854104FF65F
:1036A000FF71A0F85210A0F85610016B4968084746
:1036B00070B5044600250498A565E362616384F84B
:1036C000382084F8395084F86D5084F8915084F88B
:1036D0008D50012184F8921084F8931020630168C2
:1036E000204688472046FFF7D5FF2046FFF7CCFF4E
:1036F00084F8705070BD00007CB50C4600931346F2
:103700000546084A084900F01AFC01A800F050FBE1
:103710000146064B00949DF804202846FFF7C8FF99
:103720007CBD0000E140000809420008213D00087E
:1037300010B5816D00291AD090F9813080F88E3053
:1037400090F9822080F88F2090F88D1000290ED0FB
:1037500001290DD090F97E4090F980100C449C42D4
:1037600001DD80F88E408A4201DD80F88F1010BDA7
:1037700090F983108B4201DA80F88E1090F9841052
:10378000F1E72BB1012B05D0022B06D0104402E04B
:10379000084400E0801A80B27047401AFBE72BB162
:1037A000012B05D0022B06D0401A02E0104400E0A5
:1037B000084480B27047801AFBE738B50446B0F879
:1037C00056000090B4F85230B4F85420B4F85010B9
:1037D0002046FFF71FFF18B3012084F88C00B4F8CF
:1037E0004810B4F85000814201D2A4F84800B4F85F
:1037F0004A10B4F85200814201D9A4F84A00B4F842
:103800004C10B4F85400814201D2A4F84C00B4F832
:103810004E10B4F85600814201D9A4F84E0038BDCC
:10382000002084F88C0038BD30B504880D8825440C
:10383000ADB2AC4205D99C4202D25D1EADB200E0F1
:1038400014469C4201D2954201D8002030BD9442DA
:1038500000D214469D4200D91D460480281B0880D2
:10386000012030BD2DE9FF4FC3F1010083B006B246
:1038700058429146DDF840A040008B4601271C4687
:10388000CDE9009A00250FFA80F85B4622462946CA
:1038900015E0002E08DB08F102000FFA80F8641E24
:1038A00006EB0800A4B206B26D1CBF1C3FB2CDE906
:1038B000009AADB2F01906B25B462246294603983B
:1038C00000F005F8A542E4D307B0BDE8F08F2DE97C
:1038D000FF4F83B0164610980F46A0EB060B03EB84
:1038E000070001901098DDF84490A0EB070098467F
:1038F0005FEAC97103EB060A02F1010507F1010451
:1039000000900FD00198ABB281B21FFA8BF20398EE
:10391000FFF754FE0098A3B282B21FFA8AF103980F
:10392000FFF74CFE5FEA8971A8EB0707A8EB0606D4
:103930000DD5ABB21FFA8BF2B9B20398FFF73EFE7A
:103940000098A3B282B2B1B20398FFF737FE5FEAE4
:1039500009700DD50198ABB281B2109A0398FFF7A8
:103960002DFEA3B21FFA8AF1109A0398FFF726FEE4
:103970005FEA49700ED5ABB2B9B2109A0398FFF75F
:103980001DFE109A039807B0A3B2B1B2BDE8F04F84
:10399000FFF714BE07B0BDE8F08F38B5C58F049CA3
:1039A0000094521BC46A92B2A04738BD38B5049C3B
:1039B0000094FFF7F2FF38BD2DE9F0471C46914611
:1039C0008846064600F0D6FC00254FF6FF77726861
:1039D0002178304690470346B84225D0641CA3F5B1
:1039E0007F40FE38F3D04A4641463046FFF785FC1B
:1039F00096F8701031B1012907D0022908D00329A7
:103A00000FD10AE008EB000104E009EB000106E039
:103A1000A8EB00011FFA81F803E0A9EB00011FFAEF
:103A200081F9284485B2D2E72846BDE8F087002016
:103A3000704710B50C4600F006F80122641EA24043
:103A4000801A40B210BD30B50568047B2A78E24088
:103A50006318DBB2082B09D36D1C05602D78C4F107
:103A60000804A5401543083BEAB2DBB201248C40B0
:103A7000641E14400373204630BD00002DE9F84356
:103A8000054600F1600400F00CF915F96B6F204653
:103A9000E97BFFF7CEFF8146297C2046FFF7C9FF6F
:103AA0000746697C20466B3DFFF7C3FF804694F9CB
:103AB0000A00002857DDF019404247B2237CA08855
:103AC0003A464946FFF75DFEA080237C3A46E088EF
:103AD0004946FFF764FEE080A188277C02460B463A
:103AE00037B1012F0AD0022F40D0032F0FD146E06B
:103AF00094F90A7030443B449BB207E0891B491C8F
:103B000094F90A705B1C89B29BB2384480B2009071
:103B10002846FFF77FFD30B30020207284F80900AB
:103B200095F876102046FFF78EFF814695F87710BE
:103B30002046FFF788FF074600224946284600F046
:103B400027F801223946284600F022F801212046B4
:103B5000FFF779FF0028EFD194F90900B042DFDBCD
:103B6000A07B85F892004046BDE8F88394F90A707E
:103B70005B1CC91B491C89B29BB2921B04E094F9DF
:103B80000A7033449BB2D21B521C92B2401CBDE758
:103B90002DE9F74F84B00D46049C94F8687094F8B2
:103BA00069806034A07AC01BC6B20196B54200D2CB
:103BB00001954FFA88F279B2A088B4F806B0237C58
:103BC00092468946FFF7DDFD0290237C5246494626
:103BD0005846FFF7E4FD0246069808B1A17B02E0D3
:103BE000607B50B9E17B049880F89210207C0090B3
:103BF000DDE901310498FFF7B9FBB54207D3A81BF3
:103C0000C5B208F10100002700F0FF08CAE77819E3
:103C1000207284F8098007B0BDE8F08F70B50D46BA
:103C20000146806D1730FF2D10D8612D02D3B1F8F9
:103C3000881003E0412D02D3B1F886100844417882
:103C400019B30278AA42F9D1801C70BDB1F88A106C
:103C50000C1826460021304600F019F804440221D1
:103C6000304600F014F8361DA842F3D34FF6FF7229
:103C7000207802EA00216078084306D0A84201D1EA
:103C8000E01C70BDA0780444F2E7002070BD084439
:103C90004FF6FF720178407802EA0121084480B2B1
:103CA000704730B5054600F16004016600202073BE
:103CB00015F8781F2046FFF7C6FEA07269782046E7
:103CC000FFF7C1FEE072A87EA07310B10020E07380
:103CD00030BD0120FBE7000010B5074B074A08493B
:103CE0000848FFF709FD074800F009F9BDE8104052
:103CF0000021044800F01BB911430008D13F00081F
:103D0000D4620008C80400208A4205D2834201D848
:103D10009A4203D9012070478342F9D800207047A6
:103D2000F0B502F007060124B440002590F892E0B7
:103D3000E7B2DDF814C02C46BEF1010F01D83D46B4
:103D400000D03C46076822F00702BCF1000F3F7C20
:103D500007FB02F7BAB2476B3A44114409D108781D
:103D60005B1E284360401B0401F8010B1B0CF6D1BD
:103D7000F0BD0A78761C2A436240A3F101030A7061
:103D800016F007069BB206D06A06150E6206140EE0
:103D9000002BEED1F0BD428F114490F89220012A01
:103DA00003D800BF4FF00105F2D04FF00104EFE758
:103DB0000821017000487047C00A002070B5054610
:103DC00008782870487868708878A870C878E87093
:103DD000087928714879687188790C46A871E0796A
:103DE000E871207A2872607A6872A07AA872E07A04
:103DF000E872207B2873607B6873A07BA873E07BEC
:103E0000E873207C287411212046FFF740FF688268
:103E100013212046FFF73BFFA88215212046FFF71C
:103E200036FFE88270BD2DE9F843064690F83870F9
:103E300090F83950006800244FF6FF7890F8119000
:103E4000316830462A460B7C716B04FB03FC1FFA79
:103E50008CFC08EACC0C61440091002100F040F891
:103E6000641C6D1CE4B2EDB2BC4201D24D45E7D3F7
:103E7000BDE8F883F0B590F838204FF6FF75036879
:103E800005EAC2018187197C05EAC101418790F8E2
:103E9000394005EAC401C1875E7CA718B74201D941
:103EA000321B92B205EAC20220F8401F1144418041
:103EB000998A8180D98AC180F0BDFFF7DBBF0021DC
:103EC000A0F84810B0F84410A0F84A10B0F840101C
:103ED000A0F84C10B0F84210A0F84E10FFF76DBCDF
:103EE0001CB58DF805108DF80620049C8DF8043063
:103EF0000094012284686B460F21A0471CBD30B49A
:103F000084680023A44630BC1A460A21604730B4B6
:103F100084680023A44630BC1A461021604730B4A0
:103F200084680023A4460A4630BC0E21604730B4A2
:103F300084680023A4460A4630BC0B2160472DE963
:103F4000F04115460E460446069F00F009F86761E9
:103F5000A660C4E903532046BDE8F04100F012B862
:103F6000002140F8081B064A026042608260C2607D
:103F7000C17681770161FF21017780F820107047B9
:103F80000D43000830B484680023A44630BC1A46B0
:103F900009216047080001D00A2801D14FF6FF70BF
:103FA000704730B404690023A44630BC1A46192176
:103FB000604713B50122046901AB1721A0471CBD5E
:103FC00030B404690023A44630BC1A461821604767
:103FD00038B5142920D01148172908D0182903D042
:103FE000192911D0002038BD0021017014E00C4CBB
:103FF00006E000BF017813F8015B6554491C0170AD
:10400000521ED2B2F6D207E0C82100910378044ACA
:1040100078210448FCF76CFE012038BDD002002056
:1040200008040020C809002030B4C4680023A44656
:1040300030BC1A461921604730B4C4680023A44636
:104040000A4630BC1621604730B4C4680023A44639
:104050000A4630BC1521604730B4C4681346A446F4
:104060000A4630BC17216047F8B50C464FEA0005F8
:1040700014F8011B182924D00EDC152919D0162993
:1040800017D0172923D120788DF800006A46012126
:104090002846FFF7E1FF0AE0192912D0FE2916D1C0
:1040A00022788DF800202921284600F047F9641C69
:1040B000DEE722788DF80020EE6800232846B0471E
:1040C000F5E70023EE681A462846B047D0E7F8BD6A
:1040D00030B4C4680023A44630BC1A461821604797
:1040E0002DE9F041DFF8B08014460646A1F1140234
:1040F000002798F800001D46062A4AD2DFE802F0A1
:104100002F03161B3E4310B13046FFF74AFF3046DF
:10411000FFF756FF00213046FFF74BFF21463046A0
:10412000FFF747FF012088F8000029E021463046CC
:10413000FFF73FFF24E050B13046FFF732FF06E0C3
:104140001821304600F000F9183CE4B21835182C5C
:104150002A46F5D82146304600F0F6F80EE096F8EB
:104160002400FF2802D1782086F8240037692B46E6
:1041700022463046BC46BDE8F041604788F80070F2
:104180000120BDE8F0810028F8D03046FFF709FF94
:10419000F4E70020F5E700000004002070B50023DC
:1041A000456904461A462821A8470023E5681A46AF
:1041B00014212046A84701224B21204600F0BEF8DA
:1041C000206829210279204600F0B8F800224B210E
:1041D000204600F0B3F8206829210279204600F03B
:1041E000ADF801224B21204600F0A8F820682921D3
:1041F00042792046BDE8704000F0A0B80160897C9B
:1042000080F822107047000070B50C46054600F09B
:1042100019F888B9092C0BD00A2C01D0002070BDE8
:104220002846FFF7BBFF05492846FFF71DFF03E0BF
:1042300003492846FFF7E2FF012070BD066300082E
:10424000086400082DE9F0411E46144605460B2976
:1042500008D00D290ED00E291ED00F2927D00020FE
:10426000BDE8F0811AB12849FFF7FEFE4AE0264971
:10427000491FF9E74AB124490C31FFF7F5FE2868D8
:1042800090F8130085F822003CE01F49491DFFF714
:10429000EBFE2868807CF5E7FFF71AFF81212846AE
:1042A000FFF7D2FE21462846FFF7C6FE27E0FFF7BC
:1042B0000FFF707995F8221001EBC000C7B24021C2
:1042C0002846FFF7C1FE102040EA17112846FFF7E5
:1042D000BBFE07F00F012846FFF7AEFEB07940F0B5
:1042E000B0012846FFF7A8FE30793268C006010EFB
:1042F0002846FFF7B1FE641E14F0FF04F4D12846EF
:10430000FFF792FE0120ABE7E5620008002070474E
:1043100010B51046292903D02D2904D0002010BD46
:10432000FCF714FB08E0002102EB820002E000BF72
:10433000491C89B28842FAD8012010BD30B44469C2
:104340000023A44630BC60472DE9F04115460E46D7
:104350000446FFF735FE40212046FFF72AFE276975
:104360002B46324617212046B8472046BDE8F0418B
:10437000FFF717BE002180F8261070472DE9FF4196
:104380006A4C0E46684AB4F904101D4602EB41120D
:1043900053682BB901231160C2E9013000F0D0F855
:1043A000B4F9100005EB450106EB810500280ED09D
:1043B00008DAA86800280ADD401EA860B4F91000D9
:1043C000002804DDA868642801DA401CA860564C67
:1043D0004FF08340203C1E226060211D04F1140038
:1043E000FEF708FA5249A4F58460FFF73CF9002172
:1043F000A4F58460FFF72FF9E06900F01FFA1FFAB7
:1044000080F8A06900F01AFA87B2606900F016FA25
:1044100086B2206900F012FA81B23B463246A4F51A
:104420008460CDF80080FEF7E2FE0121A4F58460EF
:10443000FFF711F9E06900F001FA1FFA80F8A069AE
:1044400000F0FCF987B2606900F0F8F986B22069E3
:1044500000F0F4F981B23B463246A4F58460CDF811
:104460000080FEF706FFA8680A2100EB400040002C
:1044700090FBF1F087B2606900F0E0F9163086B287
:10448000206900F0DBF90A3081B2032000903B463E
:104490003246A4F58460FEF7AAFE606900F0CEF90A
:1044A000153086B2206900F0C9F9093081B20520C3
:1044B00000903E233246A4F58460FEF7DAFE606980
:1044C00000F0BCF90D3086B2206900F0B7F9401D4C
:1044D00081B218A33246A4F58460FFF767F817A1EC
:1044E00001A8AA68FBF794FE606900F0A7F90D30F7
:1044F00086B2206900F0A2F9393081B201AB3246B0
:10450000A4F58460FFF752F8A868142100EB0010AE
:1045100000EB400090FBF1F0C1B2A4F58460FFF71E
:10452000FEFCBDE8FF81000008090020D002002049
:10453000D24B000876616C75653A00002564000076
:1045400010B506480449064A064B4FF084441EC085
:1045500080E81E0010BD00000000C041E8080020F7
:10456000000008C20000A04290EA010F48BF81F09D
:10457000004100F13282421A3CBF801A89184FEA8A
:10458000D0524FF07F4C1CEA410FA2EBD15318BF21
:104590009CEA026F00F03B804FF0004C4CEA002098
:1045A0004CEA012121FA03FC10EB0C0C1ED202F1A3
:1045B000FF325FEA1C2040EBC25038BF70471CF04E
:1045C0007F0F4FEA400C18BFBCF17F4F38BF7047D8
:1045D000C3F12003994008BF20F00100BCF17F4FD8
:1045E00038BF7047A0F1C04000F0EAB94FEA3C0084
:1045F000000A40EBC25028BF1CF0FF0F4FEA400CEE
:10460000E6D018BFBCF17F4F38BF7047EAE79CEA9D
:10461000026F05D010EA5C0F08BF00F00040704741
:1046200010B500F087F900BF64FBBE3E014800F002
:1046300042BA00BF0000C07F401058BFC0F14040E8
:10464000491058BFC1F140418142EFF300807047EB
:104650004FF47F0C1CEAD0121EBF1CEAD11392EA61
:104660000C0F93EA0C0F00F0858090EA010F48BF11
:1046700042F4807240F4000C41F400002CF07F41C1
:1046800020F07F4000B58142A2EB03020FF2081C2C
:10469000ACEB504EC0F100009EF800E04FEA4E0E29
:1046A00000FB0EFC38BF49004FEA2C1C02F5FA0251
:1046B0000CFB0EF34FEACE1E4FEA112C4FEAC1213C
:1046C0000EEB635E42EB22420EFB0CFC4FEA1C53E6
:1046D00000FB03114FEA112C4FEA01310EFB0CFCD9
:1046E0004FEADC4C00FB0C11C14228BF09184CEB0F
:1046F00003335DF804EB10EB410143EBC250B2F51C
:104700007C0F38BF704729D512F0F00F1CBF00F1A5
:10471000C04000F000407047008182838485868716
:1047200088898B8C8D8E8F919293959697999A9C70
:104730009D9FA0A2A3A5A7A8AAACAEB0B2B3B5B7DF
:10474000B9BCBEC0C2C5C7C9CCCED1D4D7D9DCDFB5
:10475000E2E6E9ECF0F3F7FAFE0000004FEA400C65
:104760000CF1807CBCF17E4F28BF7047B0F1C04097
:1047700000F026B990EA010F0CEAD11348BF42F4C9
:104780008072624538BF634507D213F47F0F16D09D
:1047900080EA010000F00040704710B500F0CAF850
:1047A000097EFC3E00F005B880EA010000F0004000
:1047B000704780EA010000F0004000F001B912F4F7
:1047C0007F0F04BF0248704780EA010000F0F8B88C
:1047D0000000C07F50EA010C00F113801CF5000FAF
:1047E00058BFBCF5000F01D48842704707D710F5B9
:1047F000000F58BF11F5000F15D488427047894249
:1048000070471CF5000F04D5BCF5000FF7D58142A9
:1048100070474FF0807C1CEB400F38BF1CEB410F02
:1048200001D28142704710B500F084F8922449000B
:104830004FF000504FF08051FFF7FEBE41000B0ECD
:10484000D3F19E0208D950F400034FEA032323FA60
:1048500002F048BF4042704710B500F06BF800BF4F
:1048600049922480002070476FF0004282EA2000C5
:104870007047000010F0004148BF4042B0FA80F39A
:1048800010FA03F2C3F19D030BD051EAC35101EBBF
:104890001220530638BF704700F1010008BF20F016
:1048A00001007047B0FA80F310FA03F2C3F19D03E0
:1048B0000AD0D90501EB1220530638BF704700F12A
:1048C000010008BF20F001007047000050EA010C11
:1048D00000F113801CF5000F58BFBCF5000F01D488
:1048E0008842704707D710F5000F58BF11F5000F29
:1048F00015D488427047894270471CF5000F04D5D3
:10490000BCF5000FF7D5814270474FF0807C1CEB5F
:10491000400F38BF1CEB410F01D28142704710B5E8
:1049200000F008F8922449004FF000504FF08051F9
:10493000FFF782BE0EF1020E2EF0030E5EF8044B5E
:10494000244204D44FEA4102B2F17F4F11D84FEA1A
:104950004003B3F17F4F0CD80ED14FEAD07CB2F1B7
:104960007F4F0CEB4C0C0CF1020C08BF4CEBD17CD4
:1049700004E04FF0080C01E04FEAD17C0CEB4C0353
:1049800024FA03F404F00704B4F1040C06D20EEB8D
:10499000840CBDE810404CF0010C6047DFE80CF0DF
:1049A000070802024FF00040A0F5800010BD084645
:1049B000420018BFD2F1807288BF00F0004010BDE5
:1049C000FF2141EAD050C0057047000090EA010F76
:1049D00048BF81F000413FF5CEAD421A04D882F0C5
:1049E0000042A0EB020011444FEAD0524FF07F4C3E
:1049F0001CEA410FA2EBD15318BF9CEA026F4AD0C8
:104A00004FF0004C4CEA00204CEA012121FA03FC53
:104A1000B0EB0C0C0FD412F0FE0F36D05FEA4C0056
:104A20001DD5001240EBC25038BF70471CF03F0F3D
:104A300018BF70470BE0A2F101025FEA1C2040EBB7
:104A4000C25038BF70471CF07F0F18BF7047C3F1CA
:104A50002003994014BF401E20F0010070478008D9
:104A60004FEA122308BF7047B0FA80FCA2EB0C0299
:104A7000CCF1280C60FA0CF093EA122F04BF00EB83
:104A8000C25070474FEAC3707047130A5FEADC10E8
:104A900008BF7047F6E79CEA026F04D010EA5C0F8B
:104AA00008BF0020704710B5FFF744FF40DFF63E17
:104AB00081F0004070470CF00F03092B08BF08205D
:104AC00000F051800A2B0BD0082B18BF704708BF8D
:104AD0001CF0400F0AD04FF000004FF0000170476B
:104AE0001CF0400F18BF4FF0004070471CF0100F33
:104AF00008D020F0704300F07F4242EAD3014FEA31
:104B00004370704700F0604021F07F4242EA0002AB
:104B100001F07F4040EA727070474FF0FF0212EAE6
:104B2000D0521CBF92F0FF038B42C2BFD14200EBB8
:104B3000C1507047002A0AD0002B0BD0002900F08A
:104B40000040A4BF40F0FE4040F40000704700F079
:104B50000040704743024FF00B0C18BF4CF0806CC4
:104B60007FF464AD70471CF4801F11D01CF4E02F5B
:104B700003D06FEACC31490070474FF04050EFF35B
:104B8000008222F0704242EA000282F300887047FD
:104B90004FF00000704701020203040506070809F0
:104BA0000A0B0C0D0E0F101001020203040506077C
:104BB00008090A0B0C0D0E0F101000000000000079
:104BC00000000102030406070809000000000102BA
:104BD0000304BF0203020304010204060A00FE07E5
:104BE000FE0700017602F9093C2007D6F8F92300F8
:104BF000210AD6F891B43B985300220BD6F8932C97
:104C0000C9929C37002310D6F8932C89062989066F
:104C100029C9929C00240DD6F891704AC23189C6E8
:104C20009C02250DD6F8A3A429092B51D294132652
:104C30000ED6F8C3244BC24A53A6E430002709D647
:104C4000F891B4CE23002809D6F8A1B05AAE1329A2
:104C500009D6F8E36AB14E022A0ED6F8D12C4AA240
:104C6000414AA22CA7022B0AD6F8F1341BB43467B0
:104C70002C09D6F87913EB18002D09D6F8D9069D22
:104C80001B002E09D6F8790BC71C022F0AD6F8B1E3
:104C900034EC9AD3003010D6F8913089B2244BB25C
:104CA0002809730A00310CD6F891504BD2B64187CF
:104CB00001320CD6F8A72CCDB4301D7418330CD6A5
:104CC000B807350CE5248B7602340DD6F8A1504B8D
:104CD000A2D220A63901350DD6B807254D24294D7D
:104CE000B26827360DD6F8112D4C13494AB2682701
:104CF000370BD6B807354CC36A4E02380DD6F8A725
:104D00002CC9A2294BB26827390DD6F8A72C892CBB
:104D10006998E914003A0CD6F8F170CCC170CC2136
:104D2000003B0BD6F8F170CC41B18E013C09D6F8AE
:104D3000B1B0B91D063D0AD6F889833EE88C003E25
:104D400009D6F8E3C67612003F0BD6F8A72CACE6DE
:104D5000604E01400CD6F8A72C89942E52BC13410A
:104D600010D6F8913089B2244B06254BB21C06426E
:104D70000CD6B8872C6ADAA2962127430BD6F8A75F
:104D80002C49DBA29D00440BD6B8872CEA5F869C99
:104D900000450DD6B807254D87284D071D06460C42
:104DA000D6B807254D8728ADD300470CD6F8A72CD9
:104DB000494B4A16ED044810D6B8B3244BB26450A0
:104DC000B2244BB21C064908D6F8C7B4E34E4A0BCE
:104DD000D6F891316DAAE914004B0ED6B8B324AAC7
:104DE00064629245B51C064C09D6B8D35E071D0611
:104DF0004D0ED6B8B3244B2CDD922CC972184E0F31
:104E0000D6B8B3244BA4A4939225590E034F0ED6C3
:104E1000F8A72CC9922CC9922CDA09500DD6B88764
:104E2000284BB26488D23A0D510ED6F8A72CC992FD
:104E30002CC992A639075210D6B887284BB264887D
:104E4000922CAAE53000530CD6F8A72C89E7248BC6
:104E500076025409D6B8072DED9D02550FD6B8B38A
:104E6000244BB2244BB2248B76025610D6B8B3240E
:104E70004BB228C9922C09730A00570ED6B8B32436
:104E80004BB2A42F962C8701580FD6B8B3248B921F
:104E9000B012654996C300590CD6B8B3248B923032
:104EA0006DA7005A0BD6B80735EC3AE830005B081E
:104EB000D6F8B7B4EB4E5C09D6B8D3B86B0E035D29
:104EC00008D6F8D7DE76025E0BD6F8913089B29C10
:104ED00027005F08D6F8F93CE8006008D6B8E29CE5
:104EE0005F00610DD6F8A97334245934E4300062B0
:104EF0000DD6B8D38A2425592225894E630BD6F8BE
:104F0000A95396A459B413640ED6F8B134524A4A40
:104F10009644961C06650BD6F8A953960C4ABC130A
:104F2000660CD6F8112D2A0E595A2701670FD6F8AC
:104F3000A94392255934A449164D00680ED6B8D31A
:104F40008A2425599225590E03690AD6F8911C53D3
:104F50001B77026A0BD6F8B11C539BBA49006B0D44
:104F6000D6B8D35A12455B54CB61006C08D6F8D53D
:104F70001E77026D0BD6F8894A94F46F390C6E0EC9
:104F8000D6F889892425599225590E036F0CD6F835
:104F9000A95396644916ED04700FD6F88989242523
:104FA0005922258994A600710DD6F8A94A49C992BB
:104FB000C8925600720BD6F889892425699D06731C
:104FC0000AD6F8A9533C27434E740BD6F8D370C8C1
:104FD000D252A613750DD6F88959922559125972D5
:104FE00018760DD6F8895992454996843905770C7B
:104FF000D6F8895992257D4A7202780DD6F88959DA
:1050000094849528CB6100790ED6F8895992259120
:10501000254DB268027A0BD6F88983D838E830007B
:105020007B0CD6F8212DCEE430D661007C09D6F871
:1050300091B4EF14007D0BD6F8E530D6E24CA70012
:105040007E0AD6F8A3A453CE1B00A007D6F8F923F6
:1050500000A10AD6F8911C4CBB5300A20FD6F8F160
:1050600070486A49968443964300A30DD6F8112DE3
:105070002A8E6994243A01A40DD6F88959B425D909
:1050800094E53000A50ED6B8B3248B92301BB4B48F
:105090000E01A60BD6F891B40EA6750A00A70DD680
:1050A000F8A7748BB2285BA31D01A807D678EAFC89
:1050B00001A90CD6F8A72C6991926ED14EAA0DD6F3
:1050C000F891A9454B7264C8A900AB0ED6F8C95136
:1050D0001225511665518E02AC09D6F8198734672E
:1050E00004AD09D6F819879C1B00AE0ED6F8A72C84
:1050F00059122991922CDA09AF08D638069D9F01E2
:10510000B00AD6F8913009731E01B10CD6F8F1340B
:105110001BB4341B7418B20BD6B8B4282C0E393714
:1051200000B30AD678E64C8E768E00B408D6F8C264
:105130009C9F00B50FD6F88959922559222589944C
:105140008300B610D6F88764499648C9922CC99254
:105150001C06B708D6F85973AE00B808D6F8F92976
:10516000CC00B909D6B842B5B87304BA0CD6F81158
:105170002D6AD3A121A702BB0DD6F889511665511E
:105180001225514EBC0DD67842B538855A120D699C
:105190000CBD0DD67842B5B884491A863300BE0ED0
:1051A000D638E430CEA4504BA221CD01BF0BD6F8A7
:1051B000911C4CC35AB413C00FD678E270CA922C1B
:1051C00019942CC97218C10FD6F8C270CA922C1942
:1051D000942CC97218C210D6B8C2249BB2244B06B4
:1051E000254BB21C06C311D678A224D1A62CC99295
:1051F00041C9922C8701C410D678EAD0942559323F
:10520000285992E53000C510D6B8C2249BB2244B71
:1052100006254BB21C06C60ED6F8912129350D4342
:10522000D4B4A300C70BD6F8A72C49DBA2B108C899
:105230000ED678C24149D3214AD3418701C90ED63F
:10524000F8A24149D3214AD3418701CA0ED6B8B248
:105250004149D3214AD3418701CB0ED6784A839264
:10526000A64394A6830E03CC0AD678E2704C1B7733
:1052700002CD0AD6F8C2704C1B7702CE0BD6B8C24C
:10528000241BD3C69D00CF0AD678EAD09836EE0408
:10529000D00CD6B8872C6A59A22E434ED111D6B85D
:1052A000922889B2444A3A295992E53000D20ED662
:1052B00078E270CA922CC9922CDA09D30ED6F8C2C1
:1052C00070CA922CC9922CDA09D40FD6B8C2249B8A
:1052D000B2244BB2248B7602D510D6B89228C9A638
:1052E0002CC9922CC9A29D00D60ED678EAD094255E
:1052F00059922559B413D70DD6F889599484952815
:10530000CB6100D80ED6F8A7488994162991A29DA2
:1053100000D90ED678E2AC922559922559B413DA09
:105320000ED6F8C2AC922559922559B413DB0FD68C
:10533000B8C22447B2244BB2248B7602DC0FD67855
:10534000EA4896644996644916ED04DD0DD6F8C224
:10535000AC92454998D62900DE0DD6B8D321CA9221
:10536000214AEB3400DF0ED6F8A72C892A59544B7A
:10537000129D00E00ED678E21C9BA321C9A22187D2
:1053800001E10ED6F8C21C9BA321C9A2218701E22C
:105390000FD6B8C22487E66848B268C86100E30F38
:1053A000D6B89228C9A1391A922C1A7218E40ED6CE
:1053B000F8931C9AA321C9A2218701E50FD6B8C290
:1053C000240CE76848B268C86100E60DD6F8A94326
:1053D0009824C3940D3A0AE70CD6F8A95396A45919
:1053E000341601E80DD678E21C9BB26450E29D00B1
:1053F000E90DD6F8C21C9BB26450E29D00EA0DD6BE
:10540000B8C22487A62C19947827EB0DD6F8931CE4
:105410009AB26450E29D00EC0AD678E21C531B77E6
:1054200002ED0AD6B8C21C541B7702EE0BD6B8C2E6
:105430002487D4C69D00EF0AD6F8931C521B77022E
:10544000F00CD6B86D5396644916ED04F111D6B838
:105450009228C9914492922CC9922C8701F20DD6C0
:1054600078E21C9BB2244BB26827F30DD6F8C21C1D
:105470009BB2244BB26827F40ED6B8C22487A62C60
:10548000C9922CDA09F50FD6B89228C9A1294BB2D6
:10549000248B7602F60DD6F8931C9AB2244BB26890
:1054A00027F70AD6F8F11C1A742867F80DD6F8A960
:1054B0004312292D5232E404F90FD678E21CCA9225
:1054C0002CC992C892C300FA0FD6F8C21CCA922CFB
:1054D000C992C892C300FB10D6B8C22447B2244B6D
:1054E000B224B2E43000FC0FD6F8931CC9922CC948
:1054F00092C892C300FD0FD6F8A130AB644964494D
:10550000932C9A00FE0FD6F8D17488B2244BB26463
:1055100088D214FF10D6F8931CC9922C892C69925A
:1055200045130000000004FFFF0000BF0203020457
:1055300005010305091200FC0AFD0BFF021B045DB7
:105540000D89200929239FFFFF5F00210C29239F3C
:1055500093EE77465DE715220E29239F8B51111597
:1055600051D1F9FF06231829239F37455444451B81
:10557000864C11156D183245544445E70D24152904
:10558000239F47759814AF433CC443AA781A569D8D
:105590001B00251829239FA749518648193245D653
:1055A00065451B1269484C3B6F00261629239FA7AF
:1055B0005511155151E7495186C8A60CD9A4F304D9
:1055C000270B29239F93EECEFF5700281029239FF6
:1055D0009BACCBBAEF88AE233A2700291029239F32
:1055E0008B8EE83AA2FBACCB3A47002A1129239FC5
:1055F000BF888A691887709814A3CE0F2B0D2923B2
:105600009FBFE8C66110753B3F2C0B29239FFF9F6E
:10561000EFB2CE022D0C29239FFF751872FE1B00DE
:105620002E0A29239FFF9FEF3C022F0E29239F77ED
:105630005997EDB25DD6F902301429239FC755D191
:105640004C9AA4499AA4499A45DD7904311029233A
:105650009F47791D4245F77118749E00320F292328
:105660009FC755D1EC66CFC390F304331329239F12
:10567000A761C865F38EE8882E19879C470034130C
:1056800029239F67791D42459334491B8658B7F3F8
:1056900006351329239FA7618874FBA0233AA24BE8
:1056A000C621E711361329239FC72194757D102544
:1056B000CDA459D49D4700371029239FA761C86501
:1056C0005DD665DD9D5700381229239FC755D15CF3
:1056D000D455D14C9A45DD7904391229239FC755F9
:1056E000D14C9A651C74B338E43C023A0D29239FCF
:1056F0007F9B77AEF3CE23003B0E29239F7F9B77C2
:10570000AEF32EEB2C003C1029239F5F64EF888EB4
:10571000E8888EE8BC013D0E29239FFF360C3979BD
:1057200018727E063E0F29239F8F3AA2233AA223A6
:10573000B2773E3F0F29239FC755D1ECB2BB4ED263
:105740007905401B29239FB741B348CA905486A4CA
:1057500032249521A90CD110E9C8A0F306411329E0
:10576000239FD77CBE2AE2202A9A4993349D2700A2
:10577000421629239FA761336992260D9B499334D2
:105780004993869D3700431029239FC72194ECBE7F
:10579000239238E4BC01441629239FA741943493F3
:1057A00026699226699226D9069D4700451129232C
:1057B0009FA7618874FB20EAEEC390F304460F298B
:1057C000239FA7618874FB20EADEF9004712292392
:1057D0009FC755D14CBA69D224CDA2EE3C024818DD
:1057E00029239F274DD2244DD2A461883449933474
:1057F0004993349D2700490D29239FA761D5FD7545
:10580000D879034A1029239FD721D67D9334491C88
:10581000721E014B1529239F274DB229E290CE43DA
:10582000AA889266D2749E004C0D29239F27DDBF63
:105830000F43CE13004D1829239F274D5AA6618888
:105840009444D2244DD2244DD2244DE7094E182938
:10585000239F274DD2A4491A1249192269D2244DF7
:10586000D2244DE7094F1629239FB7413369922669
:1058700069922669922669DAA0F306501129239FBE
:10588000A74194349326D9065177E7035118292369
:105890009FC755D14C9AA4499AA449CA9029EAA015
:1058A000233A3300521629239FA761336992266950
:1058B000D2B029A2A499349D2700531329239FB75E
:1058C0004133E93A32E8886ED2B441E70D540C29ED
:1058D000239FA761D5FD3BAF00551629239F274D78
:1058E000D2244DD2244DD2244DD22CEACE230056C0
:1058F0001329239F274DD224CD222AA2A2CEF79C82
:105900005700571929239F274DD2244DD224259182
:10591000944452126918A265ABF306581329239FC9
:10592000274DD22CEA9E23F9AA68264DE709590F84
:1059300029239F17511125E310EBBEF30A5A0F29B3
:10594000239FA761C8CDBEEBC390F3045B0D292351
:105950009FCB20EAFEFBA073015C1429239F171D37
:10596000D1754447741DD1115D47749E005D0D29AA
:10597000239FCB90FB5F879C13005E0D29239F47DD
:10598000790825A3CEFF035F0B29239FFF7F1F0606
:105990009D03600D29231FD4111DD1F9FF6F0061F4
:1059A0001229239F7F1A7444D7864993346DD8797E
:1059B00002621329239F27DD3E6C264DD2244DD24F
:1059C000A461E70D630F29239F7F1A3493EEA60D80
:1059D0003A6F00641329239F77B761D2244DD224F4
:1059E0004DD2B461E709651229239F7F1A349326AB
:1059F0000D43A46BDAA0F306661029239FC7551147
:105A0000155197875877E719671629239F7F1A261C
:105A10009BA449E210EAC8A099346DD041006813F4
:105A200029239F27DD3E6C264DD2244DD2244DE7FD
:105A300009690E29239F475DC787DCD761E70D6A97
:105A40001029239F675DA7EC7E544445DD51006B10
:105A50001329239F27DD4953C4211D524594343B0C
:105A60004F006C0D29239FA721F7AFC3CE1B006DFC
:105A70000F29239FBF0F43A4F8FFA3CE13006E127C
:105A800029239F7F51B6C9266992266992A6F304FD
:105A90006F1029239F7F5B15CDA4499A45DD7904BA
:105AA000701329239F7F19444933699226D90651DF
:105AB000B75300711229239F7F1B34C92669926650
:105AC0001207DD1D03720D29239F7F51C645D3BDEB
:105AD000F30C731229239F7F1A34938E0C3A226998
